{
  "_format": "hh-sol-artifact-1",
  "contractName": "HyperswapPair",
  "sourceName": "contracts/HyperswapPair.sol",
  "abi": [
    {
      "inputs": [],
      "payable": false,
      "stateMutability": "nonpayable",
      "type": "constructor"
    },
    {
      "anonymous": false,
      "inputs": [
        {
          "indexed": true,
          "internalType": "address",
          "name": "owner",
          "type": "address"
        },
        {
          "indexed": true,
          "internalType": "address",
          "name": "spender",
          "type": "address"
        },
        {
          "indexed": false,
          "internalType": "uint256",
          "name": "value",
          "type": "uint256"
        }
      ],
      "name": "Approval",
      "type": "event"
    },
    {
      "anonymous": false,
      "inputs": [
        {
          "indexed": true,
          "internalType": "address",
          "name": "sender",
          "type": "address"
        },
        {
          "indexed": false,
          "internalType": "uint256",
          "name": "amount0",
          "type": "uint256"
        },
        {
          "indexed": false,
          "internalType": "uint256",
          "name": "amount1",
          "type": "uint256"
        },
        {
          "indexed": true,
          "internalType": "address",
          "name": "to",
          "type": "address"
        }
      ],
      "name": "Burn",
      "type": "event"
    },
    {
      "anonymous": false,
      "inputs": [
        {
          "indexed": true,
          "internalType": "address",
          "name": "token",
          "type": "address"
        },
        {
          "indexed": false,
          "internalType": "address",
          "name": "to",
          "type": "address"
        }
      ],
      "name": "DrainWrongToken",
      "type": "event"
    },
    {
      "anonymous": false,
      "inputs": [
        {
          "indexed": false,
          "internalType": "uint16",
          "name": "token0FeePercent",
          "type": "uint16"
        },
        {
          "indexed": false,
          "internalType": "uint16",
          "name": "token1FeePercent",
          "type": "uint16"
        }
      ],
      "name": "FeePercentUpdated",
      "type": "event"
    },
    {
      "anonymous": false,
      "inputs": [
        {
          "indexed": true,
          "internalType": "address",
          "name": "sender",
          "type": "address"
        },
        {
          "indexed": false,
          "internalType": "uint256",
          "name": "amount0",
          "type": "uint256"
        },
        {
          "indexed": false,
          "internalType": "uint256",
          "name": "amount1",
          "type": "uint256"
        }
      ],
      "name": "Mint",
      "type": "event"
    },
    {
      "anonymous": false,
      "inputs": [],
      "name": "SetPairTypeImmutable",
      "type": "event"
    },
    {
      "anonymous": false,
      "inputs": [
        {
          "indexed": false,
          "internalType": "bool",
          "name": "prevStableSwap",
          "type": "bool"
        },
        {
          "indexed": false,
          "internalType": "bool",
          "name": "stableSwap",
          "type": "bool"
        }
      ],
      "name": "SetStableSwap",
      "type": "event"
    },
    {
      "anonymous": false,
      "inputs": [],
      "name": "Skim",
      "type": "event"
    },
    {
      "anonymous": false,
      "inputs": [
        {
          "indexed": true,
          "internalType": "address",
          "name": "sender",
          "type": "address"
        },
        {
          "indexed": false,
          "internalType": "uint256",
          "name": "amount0In",
          "type": "uint256"
        },
        {
          "indexed": false,
          "internalType": "uint256",
          "name": "amount1In",
          "type": "uint256"
        },
        {
          "indexed": false,
          "internalType": "uint256",
          "name": "amount0Out",
          "type": "uint256"
        },
        {
          "indexed": false,
          "internalType": "uint256",
          "name": "amount1Out",
          "type": "uint256"
        },
        {
          "indexed": true,
          "internalType": "address",
          "name": "to",
          "type": "address"
        }
      ],
      "name": "Swap",
      "type": "event"
    },
    {
      "anonymous": false,
      "inputs": [
        {
          "indexed": false,
          "internalType": "uint112",
          "name": "reserve0",
          "type": "uint112"
        },
        {
          "indexed": false,
          "internalType": "uint112",
          "name": "reserve1",
          "type": "uint112"
        }
      ],
      "name": "Sync",
      "type": "event"
    },
    {
      "anonymous": false,
      "inputs": [
        {
          "indexed": true,
          "internalType": "address",
          "name": "from",
          "type": "address"
        },
        {
          "indexed": true,
          "internalType": "address",
          "name": "to",
          "type": "address"
        },
        {
          "indexed": false,
          "internalType": "uint256",
          "name": "value",
          "type": "uint256"
        }
      ],
      "name": "Transfer",
      "type": "event"
    },
    {
      "constant": true,
      "inputs": [],
      "name": "DOMAIN_SEPARATOR",
      "outputs": [
        {
          "internalType": "bytes32",
          "name": "",
          "type": "bytes32"
        }
      ],
      "payable": false,
      "stateMutability": "view",
      "type": "function"
    },
    {
      "constant": true,
      "inputs": [],
      "name": "FEE_DENOMINATOR",
      "outputs": [
        {
          "internalType": "uint256",
          "name": "",
          "type": "uint256"
        }
      ],
      "payable": false,
      "stateMutability": "view",
      "type": "function"
    },
    {
      "constant": true,
      "inputs": [],
      "name": "MAX_FEE_PERCENT",
      "outputs": [
        {
          "internalType": "uint256",
          "name": "",
          "type": "uint256"
        }
      ],
      "payable": false,
      "stateMutability": "view",
      "type": "function"
    },
    {
      "constant": true,
      "inputs": [],
      "name": "MINIMUM_LIQUIDITY",
      "outputs": [
        {
          "internalType": "uint256",
          "name": "",
          "type": "uint256"
        }
      ],
      "payable": false,
      "stateMutability": "view",
      "type": "function"
    },
    {
      "constant": true,
      "inputs": [],
      "name": "PERMIT_TYPEHASH",
      "outputs": [
        {
          "internalType": "bytes32",
          "name": "",
          "type": "bytes32"
        }
      ],
      "payable": false,
      "stateMutability": "view",
      "type": "function"
    },
    {
      "constant": true,
      "inputs": [
        {
          "internalType": "address",
          "name": "",
          "type": "address"
        },
        {
          "internalType": "address",
          "name": "",
          "type": "address"
        }
      ],
      "name": "allowance",
      "outputs": [
        {
          "internalType": "uint256",
          "name": "",
          "type": "uint256"
        }
      ],
      "payable": false,
      "stateMutability": "view",
      "type": "function"
    },
    {
      "constant": false,
      "inputs": [
        {
          "internalType": "address",
          "name": "spender",
          "type": "address"
        },
        {
          "internalType": "uint256",
          "name": "value",
          "type": "uint256"
        }
      ],
      "name": "approve",
      "outputs": [
        {
          "internalType": "bool",
          "name": "",
          "type": "bool"
        }
      ],
      "payable": false,
      "stateMutability": "nonpayable",
      "type": "function"
    },
    {
      "constant": true,
      "inputs": [
        {
          "internalType": "address",
          "name": "",
          "type": "address"
        }
      ],
      "name": "balanceOf",
      "outputs": [
        {
          "internalType": "uint256",
          "name": "",
          "type": "uint256"
        }
      ],
      "payable": false,
      "stateMutability": "view",
      "type": "function"
    },
    {
      "constant": false,
      "inputs": [
        {
          "internalType": "address",
          "name": "to",
          "type": "address"
        }
      ],
      "name": "burn",
      "outputs": [
        {
          "internalType": "uint256",
          "name": "amount0",
          "type": "uint256"
        },
        {
          "internalType": "uint256",
          "name": "amount1",
          "type": "uint256"
        }
      ],
      "payable": false,
      "stateMutability": "nonpayable",
      "type": "function"
    },
    {
      "constant": true,
      "inputs": [],
      "name": "decimals",
      "outputs": [
        {
          "internalType": "uint8",
          "name": "",
          "type": "uint8"
        }
      ],
      "payable": false,
      "stateMutability": "view",
      "type": "function"
    },
    {
      "constant": false,
      "inputs": [
        {
          "internalType": "address",
          "name": "token",
          "type": "address"
        },
        {
          "internalType": "address",
          "name": "to",
          "type": "address"
        }
      ],
      "name": "drainWrongToken",
      "outputs": [],
      "payable": false,
      "stateMutability": "nonpayable",
      "type": "function"
    },
    {
      "constant": true,
      "inputs": [],
      "name": "factory",
      "outputs": [
        {
          "internalType": "address",
          "name": "",
          "type": "address"
        }
      ],
      "payable": false,
      "stateMutability": "view",
      "type": "function"
    },
    {
      "constant": false,
      "inputs": [],
      "name": "forceClaimFees",
      "outputs": [],
      "payable": false,
      "stateMutability": "nonpayable",
      "type": "function"
    },
    {
      "constant": true,
      "inputs": [
        {
          "internalType": "uint256",
          "name": "amountIn",
          "type": "uint256"
        },
        {
          "internalType": "address",
          "name": "tokenIn",
          "type": "address"
        }
      ],
      "name": "getAmountOut",
      "outputs": [
        {
          "internalType": "uint256",
          "name": "",
          "type": "uint256"
        }
      ],
      "payable": false,
      "stateMutability": "view",
      "type": "function"
    },
    {
      "constant": true,
      "inputs": [],
      "name": "getReserves",
      "outputs": [
        {
          "internalType": "uint112",
          "name": "_reserve0",
          "type": "uint112"
        },
        {
          "internalType": "uint112",
          "name": "_reserve1",
          "type": "uint112"
        },
        {
          "internalType": "uint16",
          "name": "_token0FeePercent",
          "type": "uint16"
        },
        {
          "internalType": "uint16",
          "name": "_token1FeePercent",
          "type": "uint16"
        }
      ],
      "payable": false,
      "stateMutability": "view",
      "type": "function"
    },
    {
      "constant": false,
      "inputs": [
        {
          "internalType": "address",
          "name": "_token0",
          "type": "address"
        },
        {
          "internalType": "address",
          "name": "_token1",
          "type": "address"
        }
      ],
      "name": "initialize",
      "outputs": [],
      "payable": false,
      "stateMutability": "nonpayable",
      "type": "function"
    },
    {
      "constant": true,
      "inputs": [],
      "name": "initialized",
      "outputs": [
        {
          "internalType": "bool",
          "name": "",
          "type": "bool"
        }
      ],
      "payable": false,
      "stateMutability": "view",
      "type": "function"
    },
    {
      "constant": true,
      "inputs": [],
      "name": "kLast",
      "outputs": [
        {
          "internalType": "uint256",
          "name": "",
          "type": "uint256"
        }
      ],
      "payable": false,
      "stateMutability": "view",
      "type": "function"
    },
    {
      "constant": false,
      "inputs": [
        {
          "internalType": "address",
          "name": "to",
          "type": "address"
        }
      ],
      "name": "mint",
      "outputs": [
        {
          "internalType": "uint256",
          "name": "liquidity",
          "type": "uint256"
        }
      ],
      "payable": false,
      "stateMutability": "nonpayable",
      "type": "function"
    },
    {
      "constant": true,
      "inputs": [],
      "name": "name",
      "outputs": [
        {
          "internalType": "string",
          "name": "",
          "type": "string"
        }
      ],
      "payable": false,
      "stateMutability": "view",
      "type": "function"
    },
    {
      "constant": true,
      "inputs": [
        {
          "internalType": "address",
          "name": "",
          "type": "address"
        }
      ],
      "name": "nonces",
      "outputs": [
        {
          "internalType": "uint256",
          "name": "",
          "type": "uint256"
        }
      ],
      "payable": false,
      "stateMutability": "view",
      "type": "function"
    },
    {
      "constant": true,
      "inputs": [],
      "name": "pairTypeImmutable",
      "outputs": [
        {
          "internalType": "bool",
          "name": "",
          "type": "bool"
        }
      ],
      "payable": false,
      "stateMutability": "view",
      "type": "function"
    },
    {
      "constant": false,
      "inputs": [
        {
          "internalType": "address",
          "name": "owner",
          "type": "address"
        },
        {
          "internalType": "address",
          "name": "spender",
          "type": "address"
        },
        {
          "internalType": "uint256",
          "name": "value",
          "type": "uint256"
        },
        {
          "internalType": "uint256",
          "name": "deadline",
          "type": "uint256"
        },
        {
          "internalType": "uint8",
          "name": "v",
          "type": "uint8"
        },
        {
          "internalType": "bytes32",
          "name": "r",
          "type": "bytes32"
        },
        {
          "internalType": "bytes32",
          "name": "s",
          "type": "bytes32"
        }
      ],
      "name": "permit",
      "outputs": [],
      "payable": false,
      "stateMutability": "nonpayable",
      "type": "function"
    },
    {
      "constant": true,
      "inputs": [],
      "name": "precisionMultiplier0",
      "outputs": [
        {
          "internalType": "uint256",
          "name": "",
          "type": "uint256"
        }
      ],
      "payable": false,
      "stateMutability": "view",
      "type": "function"
    },
    {
      "constant": true,
      "inputs": [],
      "name": "precisionMultiplier1",
      "outputs": [
        {
          "internalType": "uint256",
          "name": "",
          "type": "uint256"
        }
      ],
      "payable": false,
      "stateMutability": "view",
      "type": "function"
    },
    {
      "constant": false,
      "inputs": [
        {
          "internalType": "uint16",
          "name": "newToken0FeePercent",
          "type": "uint16"
        },
        {
          "internalType": "uint16",
          "name": "newToken1FeePercent",
          "type": "uint16"
        }
      ],
      "name": "setFeePercent",
      "outputs": [],
      "payable": false,
      "stateMutability": "nonpayable",
      "type": "function"
    },
    {
      "constant": false,
      "inputs": [],
      "name": "setPairTypeImmutable",
      "outputs": [],
      "payable": false,
      "stateMutability": "nonpayable",
      "type": "function"
    },
    {
      "constant": false,
      "inputs": [
        {
          "internalType": "bool",
          "name": "stable",
          "type": "bool"
        },
        {
          "internalType": "uint112",
          "name": "expectedReserve0",
          "type": "uint112"
        },
        {
          "internalType": "uint112",
          "name": "expectedReserve1",
          "type": "uint112"
        }
      ],
      "name": "setStableSwap",
      "outputs": [],
      "payable": false,
      "stateMutability": "nonpayable",
      "type": "function"
    },
    {
      "constant": false,
      "inputs": [
        {
          "internalType": "address",
          "name": "to",
          "type": "address"
        }
      ],
      "name": "skim",
      "outputs": [],
      "payable": false,
      "stateMutability": "nonpayable",
      "type": "function"
    },
    {
      "constant": true,
      "inputs": [],
      "name": "stableSwap",
      "outputs": [
        {
          "internalType": "bool",
          "name": "",
          "type": "bool"
        }
      ],
      "payable": false,
      "stateMutability": "view",
      "type": "function"
    },
    {
      "constant": false,
      "inputs": [
        {
          "internalType": "uint256",
          "name": "amount0Out",
          "type": "uint256"
        },
        {
          "internalType": "uint256",
          "name": "amount1Out",
          "type": "uint256"
        },
        {
          "internalType": "address",
          "name": "to",
          "type": "address"
        },
        {
          "internalType": "bytes",
          "name": "data",
          "type": "bytes"
        }
      ],
      "name": "swap",
      "outputs": [],
      "payable": false,
      "stateMutability": "nonpayable",
      "type": "function"
    },
    {
      "constant": false,
      "inputs": [
        {
          "internalType": "uint256",
          "name": "amount0Out",
          "type": "uint256"
        },
        {
          "internalType": "uint256",
          "name": "amount1Out",
          "type": "uint256"
        },
        {
          "internalType": "address",
          "name": "to",
          "type": "address"
        },
        {
          "internalType": "bytes",
          "name": "data",
          "type": "bytes"
        },
        {
          "internalType": "address",
          "name": "referrer",
          "type": "address"
        }
      ],
      "name": "swap",
      "outputs": [],
      "payable": false,
      "stateMutability": "nonpayable",
      "type": "function"
    },
    {
      "constant": true,
      "inputs": [],
      "name": "symbol",
      "outputs": [
        {
          "internalType": "string",
          "name": "",
          "type": "string"
        }
      ],
      "payable": false,
      "stateMutability": "view",
      "type": "function"
    },
    {
      "constant": false,
      "inputs": [],
      "name": "sync",
      "outputs": [],
      "payable": false,
      "stateMutability": "nonpayable",
      "type": "function"
    },
    {
      "constant": true,
      "inputs": [],
      "name": "token0",
      "outputs": [
        {
          "internalType": "address",
          "name": "",
          "type": "address"
        }
      ],
      "payable": false,
      "stateMutability": "view",
      "type": "function"
    },
    {
      "constant": true,
      "inputs": [],
      "name": "token0FeePercent",
      "outputs": [
        {
          "internalType": "uint16",
          "name": "",
          "type": "uint16"
        }
      ],
      "payable": false,
      "stateMutability": "view",
      "type": "function"
    },
    {
      "constant": true,
      "inputs": [],
      "name": "token1",
      "outputs": [
        {
          "internalType": "address",
          "name": "",
          "type": "address"
        }
      ],
      "payable": false,
      "stateMutability": "view",
      "type": "function"
    },
    {
      "constant": true,
      "inputs": [],
      "name": "token1FeePercent",
      "outputs": [
        {
          "internalType": "uint16",
          "name": "",
          "type": "uint16"
        }
      ],
      "payable": false,
      "stateMutability": "view",
      "type": "function"
    },
    {
      "constant": true,
      "inputs": [],
      "name": "totalSupply",
      "outputs": [
        {
          "internalType": "uint256",
          "name": "",
          "type": "uint256"
        }
      ],
      "payable": false,
      "stateMutability": "view",
      "type": "function"
    },
    {
      "constant": false,
      "inputs": [
        {
          "internalType": "address",
          "name": "to",
          "type": "address"
        },
        {
          "internalType": "uint256",
          "name": "value",
          "type": "uint256"
        }
      ],
      "name": "transfer",
      "outputs": [
        {
          "internalType": "bool",
          "name": "",
          "type": "bool"
        }
      ],
      "payable": false,
      "stateMutability": "nonpayable",
      "type": "function"
    },
    {
      "constant": false,
      "inputs": [
        {
          "internalType": "address",
          "name": "from",
          "type": "address"
        },
        {
          "internalType": "address",
          "name": "to",
          "type": "address"
        },
        {
          "internalType": "uint256",
          "name": "value",
          "type": "uint256"
        }
      ],
      "name": "transferFrom",
      "outputs": [
        {
          "internalType": "bool",
          "name": "",
          "type": "bool"
        }
      ],
      "payable": false,
      "stateMutability": "nonpayable",
      "type": "function"
    }
  ],
  "bytecode": "0x60806040526008805461ffff60e01b1916604b60e21b176001600160f01b0316604b60f21b1790556001600d5534801561003857600080fd5b506040514690806052613f088239604080519182900360520182208282018252600c83526b0487970657273776170204c560a41b6020938401528151808301835260018152603160f81b908401528151808401919091527f58f480df8d48ff925278c45d98d539a679d6b759331a818079400967dd1f26a0818301527fc89efdaa54c0f20c7adf612882df0950f5a951637e0307cdcb4c672f298b8bc6606082015260808101949094523060a0808601919091528151808603909101815260c09094019052825192019190912060035550600580546001600160a01b03191633179055613dde8061012a6000396000f3fe608060405234801561001057600080fd5b50600436106102535760003560e01c806367d8174011610146578063b6200b07116100c3578063d505accf11610087578063d505accf14610737578063d73792a914610788578063dd62ed3e14610790578063f140a35a146107be578063f39ac11f146107ea578063fff6cae91461081857610253565b8063b6200b07146106f1578063ba9a7a56146106f9578063bc25cf7714610701578063c45a015514610727578063d21220a71461072f57610253565b80637ecebe001161010a5780637ecebe001461065057806389afcb441461067657806395d89b41146106b55780639e548b7f146106bd578063a9059cbb146106c557610253565b806367d817401461055f5780636a627842146105675780636e1fdd7f1461058d57806370a08231146106225780637464fc3d1461064857610253565b80632fcd1692116101d45780633b9f1dc0116101985780633b9f1dc0146104f05780633ba17077146104f8578063485cc9551461050057806348e5d2601461052e57806362ecec031461055757610253565b80632fcd16921461046d5780633029e5d41461048c57806330adf81f146104c2578063313ce567146104ca5780633644e515146104e857610253565b80630dfe16811161021b5780630dfe1681146103e9578063158ef93e1461040d57806318160ddd1461041557806323b872dd1461042f578063288e5d021461046557610253565b8063022c0d9f1461025857806306fdde03146102e65780630902f1ac14610363578063095ea7b3146103a15780630a0ef8b5146103e1575b600080fd5b6102e46004803603608081101561026e57600080fd5b8135916020810135916001600160a01b0360408301351691908101906080810160608201356401000000008111156102a557600080fd5b8201836020820111156102b757600080fd5b803590602001918460018302840111640100000000831117156102d957600080fd5b509092509050610820565b005b6102ee6108c1565b6040805160208082528351818301528351919283929083019185019080838360005b83811015610328578181015183820152602001610310565b50505050905090810190601f1680156103555780820380516001836020036101000a031916815260200191505b509250505060405180910390f35b61036b6108e9565b604080516001600160701b03958616815293909416602084015261ffff9182168385015216606082015290519081900360800190f35b6103cd600480360360408110156103b757600080fd5b506001600160a01b03813516906020013561091c565b604080519115158252519081900360200190f35b6102e4610933565b6103f1610b47565b604080516001600160a01b039092168252519081900360200190f35b6103cd610b56565b61041d610b66565b60408051918252519081900360200190f35b6103cd6004803603606081101561044557600080fd5b506001600160a01b03813581169160208101359091169060400135610b6c565b61041d610c43565b610475610c49565b6040805161ffff9092168252519081900360200190f35b6102e4600480360360608110156104a257600080fd5b5080351515906001600160701b0360208201358116916040013516610c5a565b61041d610f4d565b6104d2610f71565b6040805160ff9092168252519081900360200190f35b61041d610f76565b61041d610f7c565b6102e4610f82565b6102e46004803603604081101561051657600080fd5b506001600160a01b038135811691602001351661111f565b6102e46004803603604081101561054457600080fd5b5061ffff813581169160200135166112ba565b6104756114df565b61041d6114f0565b61041d6004803603602081101561057d57600080fd5b50356001600160a01b03166114f6565b6102e4600480360360a08110156105a357600080fd5b8135916020810135916001600160a01b0360408301351691908101906080810160608201356401000000008111156105da57600080fd5b8201836020820111156105ec57600080fd5b8035906020019184600183028401116401000000008311171561060e57600080fd5b9193509150356001600160a01b03166117f5565b61041d6004803603602081101561063857600080fd5b50356001600160a01b0316611899565b61041d6118ab565b61041d6004803603602081101561066657600080fd5b50356001600160a01b03166118b1565b61069c6004803603602081101561068c57600080fd5b50356001600160a01b03166118c3565b6040805192835260208301919091528051918290030190f35b6102ee611c5c565b6103cd611c7f565b6103cd600480360360408110156106db57600080fd5b506001600160a01b038135169060200135611c88565b6103cd611c95565b61041d611ca3565b6102e46004803603602081101561071757600080fd5b50356001600160a01b0316611ca9565b6103f1611e37565b6103f1611e46565b6102e4600480360360e081101561074d57600080fd5b506001600160a01b03813581169160208101359091169060408101359060608101359060ff6080820135169060a08101359060c00135611e55565b61041d612056565b61041d600480360360408110156107a657600080fd5b506001600160a01b038135811691602001351661205d565b61041d600480360360408110156107d457600080fd5b50803590602001356001600160a01b031661207a565b6102e46004803603604081101561080057600080fd5b506001600160a01b03813581169160200135166120ea565b6102e461233e565b610828613b3d565b5060408051610100810182526006546001600160a01b039081168252600754166020808301919091528183018890526060820187905260006080830181905260a0830181905260c0830181905260e08301528251601f850182900482028101820190935283835290916108b991839187918790879081908401838280828437600092018290525092506124dc915050565b505050505050565b6040518060400160405280600c81526020016b0487970657273776170204c560a41b81525081565b6008546001600160701b0380821692600160701b83049091169161ffff600160e01b8204811692600160f01b9092041690565b6000610929338484612e96565b5060015b92915050565b600560009054906101000a90046001600160a01b03166001600160a01b0316638da5cb5b6040518163ffffffff1660e01b815260040160206040518083038186803b15801561098157600080fd5b505afa158015610995573d6000803e3d6000fd5b505050506040513d60208110156109ab57600080fd5b50516001600160a01b031633146109f35760405162461bcd60e51b8152600401808060200182810382526022815260200180613b956022913960400191505060405180910390fd5b6000806109fe6108e9565b5050915091506000610a108383612ef8565b600654604080516370a0823160e01b815230600482015290519293506000926001600160a01b03909216916370a0823191602480820192602092909190829003018186803b158015610a6157600080fd5b505afa158015610a75573d6000803e3d6000fd5b505050506040513d6020811015610a8b57600080fd5b5051600754604080516370a0823160e01b815230600482015290519293506000926001600160a01b03909216916370a0823191602480820192602092909190829003018186803b158015610ade57600080fd5b505afa158015610af2573d6000803e3d6000fd5b505050506040513d6020811015610b0857600080fd5b50519050610b1682826130b1565b8215610b4057600854610b3c906001600160701b0380821691600160701b90041661319f565b600b555b5050505050565b6006546001600160a01b031681565b600754600160a01b900460ff1681565b60005481565b6001600160a01b038316600090815260026020908152604080832033845290915281205460001914610c2d576001600160a01b0384166000908152600260209081526040808320338452909152812054610bcc908463ffffffff6132b516565b6001600160a01b038616600081815260026020908152604080832033808552908352928190208590558051858152905194955091937f8c5be1e5ebec7d5bd14f71427d1e84f3dd0314c0f7b2291e5b200ac8c7c3b9259281900390910190a3505b610c388484846132f7565b5060015b9392505050565b600a5481565b600854600160f01b900461ffff1681565b600d54600114610c9f576040805162461bcd60e51b81526020600482015260146024820152600080516020613d34833981519152604482015290519081900360640190fd5b6000600d5560055460408051637e1c813560e11b815290516001600160a01b039092169163fc39026a91600480820192602092909190829003018186803b158015610ce957600080fd5b505afa158015610cfd573d6000803e3d6000fd5b505050506040513d6020811015610d1357600080fd5b50516001600160a01b03163314610d5b5760405162461bcd60e51b815260040180806020018281038252602b815260200180613c57602b913960400191505060405180910390fd5b600c54610100900460ff1615610db8576040805162461bcd60e51b815260206004820152601760248201527f4879706572737761705061697220696d6d757461626c65000000000000000000604482015290519081900360640190fd5b600c5460ff1615158315151415610e16576040805162461bcd60e51b815260206004820152601760248201527f48797065727377617050616972206e6f20757064617465000000000000000000604482015290519081900360640190fd5b6008546001600160701b038381169116148015610e4757506008546001600160701b03828116600160701b90920416145b610e8f576040805162461bcd60e51b8152602060048201526014602482015273121e5c195c9cddd85c14185a5c8819985a5b195960621b604482015290519081900360640190fd5b600854600090610eb2906001600160701b0380821691600160701b900416612ef8565b600c546040805160ff90921615158252861515602083015280519293507fb6a86710bde53aa7fb1b3856279e2af5b476d53e2dd0902cf17a0911b5a43a8b92918290030190a1600c805460ff191685158015919091179091558490610f145750805b610f1f576000610f3f565b600854610f3f906001600160701b0380821691600160701b90041661319f565b600b5550506001600d555050565b7f6e71edae12b1b97f4d1f60370fef10105fa2faae0126114a169c64845d6126c981565b601281565b60035481565b60095481565b600d54600114610fc7576040805162461bcd60e51b81526020600482015260146024820152600080516020613d34833981519152604482015290519081900360640190fd5b6000600d5560055460408051638da5cb5b60e01b815290516001600160a01b0390921691638da5cb5b91600480820192602092909190829003018186803b15801561101157600080fd5b505afa158015611025573d6000803e3d6000fd5b505050506040513d602081101561103b57600080fd5b50516001600160a01b031633146110835760405162461bcd60e51b8152600401808060200182810382526022815260200180613b956022913960400191505060405180910390fd5b600c54610100900460ff16156110e0576040805162461bcd60e51b815260206004820152601f60248201527f4879706572737761705061697220616c726561647920696d6d757461626c6500604482015290519081900360640190fd5b600c805461ff0019166101001790556040517f09122c41ae733a4d7740324d50e35fbd6ee85be3c1312a45596d8045150ab2f290600090a16001600d55565b6005546001600160a01b0316331480156111435750600754600160a01b900460ff16155b611194576040805162461bcd60e51b815260206004820152601760248201527f4879706572737761705061697220464f5242494444454e000000000000000000604482015290519081900360640190fd5b600680546001600160a01b038085166001600160a01b0319928316811790935560078054918516919092161790556040805163313ce56760e01b8152905163313ce56791600480820192602092909190829003018186803b1580156111f857600080fd5b505afa15801561120c573d6000803e3d6000fd5b505050506040513d602081101561122257600080fd5b505160ff16600a0a6009556040805163313ce56760e01b815290516001600160a01b0383169163313ce567916004808301926020929190829003018186803b15801561126d57600080fd5b505afa158015611281573d6000803e3d6000fd5b505050506040513d602081101561129757600080fd5b505160ff16600a90810a905550506007805460ff60a01b1916600160a01b179055565b600d546001146112ff576040805162461bcd60e51b81526020600482015260146024820152600080516020613d34833981519152604482015290519081900360640190fd5b6000600d5560055460408051634c21771560e01b815290516001600160a01b0390921691634c21771591600480820192602092909190829003018186803b15801561134957600080fd5b505afa15801561135d573d6000803e3d6000fd5b505050506040513d602081101561137357600080fd5b50516001600160a01b031633146113bb5760405162461bcd60e51b815260040180806020018281038252602b815260200180613d7f602b913960400191505060405180910390fd5b6107d08261ffff16111580156113d757506107d08161ffff1611155b6114125760405162461bcd60e51b8152600401808060200182810382526033815260200180613d016033913960400191505060405180910390fd5b60008261ffff1611801561142a575060008161ffff16115b6114655760405162461bcd60e51b8152600401808060200182810382526033815260200180613cce6033913960400191505060405180910390fd5b6008805461ffff60e01b1916600160e01b61ffff858116918202929092176001600160f01b0316600160f01b9285169283021790925560408051928352602083019190915280517fa4877b8ecb5a00ba277e4bceeeb187a669e7113649774dfbea05c259ce27f17b9281900390910190a150506001600d55565b600854600160e01b900461ffff1681565b6107d081565b6000600d5460011461153d576040805162461bcd60e51b81526020600482015260146024820152600080516020613d34833981519152604482015290519081900360640190fd5b6000600d8190558061154d6108e9565b5050600654604080516370a0823160e01b815230600482015290519395509193506000926001600160a01b03909116916370a08231916024808301926020929190829003018186803b1580156115a257600080fd5b505afa1580156115b6573d6000803e3d6000fd5b505050506040513d60208110156115cc57600080fd5b5051600754604080516370a0823160e01b815230600482015290519293506000926001600160a01b03909216916370a0823191602480820192602092909190829003018186803b15801561161f57600080fd5b505afa158015611633573d6000803e3d6000fd5b505050506040513d602081101561164957600080fd5b505190506000611668836001600160701b03871663ffffffff6132b516565b90506000611685836001600160701b03871663ffffffff6132b516565b905060006116938787612ef8565b600054909150806116dc576116c86103e86116bc6116b7878763ffffffff6133b116565b61340a565b9063ffffffff6132b516565b98506116d760006103e861345c565b61172b565b6117286001600160701b0389166116f9868463ffffffff6133b116565b8161170057fe5b046001600160701b03891661171b868563ffffffff6133b116565b8161172257fe5b046134f2565b98505b6000891161176a5760405162461bcd60e51b815260040180806020018281038252602b815260200180613c82602b913960400191505060405180910390fd5b6117748a8a61345c565b61177e86866130b1565b81156117a8576008546117a4906001600160701b0380821691600160701b90041661319f565b600b555b6040805185815260208101859052815133927f4c209b5fc8ad50758f13e2e1088ba56a560dff690a1c6fef26394f4c03821c4f928290030190a250506001600d5550949695505050505050565b6117fd613b3d565b5060408051610100810182526006546001600160a01b039081168252600754166020808301919091528183018990526060820188905260006080830181905260a0830181905260c0830181905260e08301528251601f86018290048202810182019093528483529091611890918391889188908890819084018382808284376000920191909152508892506124dc915050565b50505050505050565b60016020526000908152604090205481565b600b5481565b60046020526000908152604090205481565b600080600d5460011461190b576040805162461bcd60e51b81526020600482015260146024820152600080516020613d34833981519152604482015290519081900360640190fd5b6000600d8190558061191b6108e9565b5050600654600754604080516370a0823160e01b815230600482015290519496509294506001600160a01b039182169391169160009184916370a08231916024808301926020929190829003018186803b15801561197857600080fd5b505afa15801561198c573d6000803e3d6000fd5b505050506040513d60208110156119a257600080fd5b5051604080516370a0823160e01b815230600482015290519192506000916001600160a01b038516916370a08231916024808301926020929190829003018186803b1580156119f057600080fd5b505afa158015611a04573d6000803e3d6000fd5b505050506040513d6020811015611a1a57600080fd5b505130600090815260016020526040812054919250611a398888612ef8565b60005490915080611a50848763ffffffff6133b116565b81611a5757fe5b049a5080611a6b848663ffffffff6133b116565b81611a7257fe5b04995060008b118015611a85575060008a115b611ac05760405162461bcd60e51b815260040180806020018281038252602b815260200180613d54602b913960400191505060405180910390fd5b611aca3084613508565b611ad5878d8d6135a6565b611ae0868d8c6135a6565b604080516370a0823160e01b815230600482015290516001600160a01b038916916370a08231916024808301926020929190829003018186803b158015611b2657600080fd5b505afa158015611b3a573d6000803e3d6000fd5b505050506040513d6020811015611b5057600080fd5b5051604080516370a0823160e01b815230600482015290519196506001600160a01b038816916370a0823191602480820192602092909190829003018186803b158015611b9c57600080fd5b505afa158015611bb0573d6000803e3d6000fd5b505050506040513d6020811015611bc657600080fd5b50519350611bd485856130b1565b8115611bfe57600854611bfa906001600160701b0380821691600160701b90041661319f565b600b555b604080518c8152602081018c905281516001600160a01b038f169233927fdccd412f0b1252819cb1fd330b93224ca42612892bb3f4f789976e6d81936496929081900390910190a35050505050505050506001600d81905550915091565b604051806040016040528060078152602001660485053582d4c560cc1b81525081565b600c5460ff1681565b60006109293384846132f7565b600c54610100900460ff1681565b6103e881565b600d54600114611cee576040805162461bcd60e51b81526020600482015260146024820152600080516020613d34833981519152604482015290519081900360640190fd5b6000600d55600654600754600854604080516370a0823160e01b815230600482015290516001600160a01b039485169490931692611d9d9285928792611d98926001600160701b03169185916370a0823191602480820192602092909190829003018186803b158015611d6057600080fd5b505afa158015611d74573d6000803e3d6000fd5b505050506040513d6020811015611d8a57600080fd5b50519063ffffffff6132b516565b6135a6565b600854604080516370a0823160e01b81523060048201529051611e049284928792611d9892600160701b90046001600160701b0316916001600160a01b038616916370a0823191602480820192602092909190829003018186803b158015611d6057600080fd5b6040517f21ad22495c9c75cd1c94756f91824e779c0c8a8e168b267c790df464fe056b7990600090a150506001600d5550565b6005546001600160a01b031681565b6007546001600160a01b031681565b42841015611e9e576040805162461bcd60e51b8152602060048201526011602482015270121e5c195c9cddd85c0811561412549151607a1b604482015290519081900360640190fd5b6003546001600160a01b0380891660008181526004602090815260408083208054600180820190925582517f6e71edae12b1b97f4d1f60370fef10105fa2faae0126114a169c64845d6126c98186015280840196909652958d166060860152608085018c905260a085019590955260c08085018b90528151808603909101815260e08501825280519083012061190160f01b6101008601526101028501969096526101228085019690965280518085039096018652610142840180825286519683019690962095839052610162840180825286905260ff89166101828501526101a284018890526101c28401879052519193926101e280820193601f1981019281900390910190855afa158015611fb9573d6000803e3d6000fd5b5050604051601f1901519150506001600160a01b03811615801590611fef5750886001600160a01b0316816001600160a01b0316145b612040576040805162461bcd60e51b815260206004820152601b60248201527f48797065727377617020494e56414c49445f5349474e41545552450000000000604482015290519081900360640190fd5b61204b898989612e96565b505050505050505050565b620186a081565b600260209081526000928352604080842090915290825290205481565b60065460009081906001600160a01b038481169116146120a757600854600160f01b900461ffff166120b6565b600854600160e01b900461ffff165b6008549091506120e290859085906001600160701b0380821691600160701b90041661ffff8616613739565b949350505050565b600d5460011461212f576040805162461bcd60e51b81526020600482015260146024820152600080516020613d34833981519152604482015290519081900360640190fd5b6000600d5560055460408051638da5cb5b60e01b815290516001600160a01b0390921691638da5cb5b91600480820192602092909190829003018186803b15801561217957600080fd5b505afa15801561218d573d6000803e3d6000fd5b505050506040513d60208110156121a357600080fd5b50516001600160a01b031633146121eb5760405162461bcd60e51b8152600401808060200182810382526022815260200180613b956022913960400191505060405180910390fd5b6006546001600160a01b0383811691161480159061221757506007546001600160a01b03838116911614155b612268576040805162461bcd60e51b815260206004820152601b60248201527f4879706572737761705061697220696e76616c696420746f6b656e0000000000604482015290519081900360640190fd5b6122f48282846001600160a01b03166370a08231306040518263ffffffff1660e01b815260040180826001600160a01b03166001600160a01b0316815260200191505060206040518083038186803b1580156122c357600080fd5b505afa1580156122d7573d6000803e3d6000fd5b505050506040513d60208110156122ed57600080fd5b50516135a6565b604080516001600160a01b0383811682529151918416917f368a9dc863ecb94b5ba32a682e26295b10d9c2666fad7d785ebdf262c3c524139181900360200190a250506001600d55565b600d54600114612383576040805162461bcd60e51b81526020600482015260146024820152600080516020613d34833981519152604482015290519081900360640190fd5b6000600d819055600654604080516370a0823160e01b815230600482015290516001600160a01b03909216916370a0823191602480820192602092909190829003018186803b1580156123d557600080fd5b505afa1580156123e9573d6000803e3d6000fd5b505050506040513d60208110156123ff57600080fd5b5051600754604080516370a0823160e01b815230600482015290519293506000926001600160a01b03909216916370a0823191602480820192602092909190829003018186803b15801561245257600080fd5b505afa158015612466573d6000803e3d6000fd5b505050506040513d602081101561247c57600080fd5b50519050811580159061248e57508015155b6124c95760405162461bcd60e51b815260040180806020018281038252602d815260200180613bb7602d913960400191505060405180910390fd5b6124d382826130b1565b50506001600d55565b600d54600114612521576040805162461bcd60e51b81526020600482015260146024820152600080516020613d34833981519152604482015290519081900360640190fd5b6000600d55604084015115158061253c575060008460600151115b6125775760405162461bcd60e51b8152600401808060200182810382526028815260200180613c086028913960400191505060405180910390fd5b6000806000806125856108e9565b9350935093509350836001600160701b031688604001511080156125b55750826001600160701b03168860600151105b6125f05760405162461bcd60e51b8152600401808060200182810382526024815260200180613be46024913960400191505060405180910390fd5b87516001600160a01b03888116911614801590612623575087602001516001600160a01b0316876001600160a01b031614155b612674576040805162461bcd60e51b815260206004820152601860248201527f4879706572737761705061697220494e56414c49445f544f0000000000000000604482015290519081900360640190fd5b604088015115612691576126918860000151888a604001516135a6565b6060880151156126ae576126ae8860200151888a606001516135a6565b8551156127a857866001600160a01b03166310d1e85c338a604001518b606001518a6040518563ffffffff1660e01b815260040180856001600160a01b03166001600160a01b0316815260200184815260200183815260200180602001828103825283818151815260200191508051906020019080838360005b83811015612740578181015183820152602001612728565b50505050905090810190601f16801561276d5780820380516001836020036101000a031916815260200191505b5095505050505050600060405180830381600087803b15801561278f57600080fd5b505af11580156127a3573d6000803e3d6000fd5b505050505b8751604080516370a0823160e01b815230600482015290516001600160a01b03909216916370a0823191602480820192602092909190829003018186803b1580156127f257600080fd5b505afa158015612806573d6000803e3d6000fd5b505050506040513d602081101561281c57600080fd5b50516080890152602088810151604080516370a0823160e01b815230600482015290516001600160a01b03909216926370a0823192602480840193829003018186803b15801561286b57600080fd5b505afa15801561287f573d6000803e3d6000fd5b505050506040513d602081101561289557600080fd5b505160a0890152604088015160808901516000916001600160701b03871603106128c05760006128d7565b8860400151856001600160701b0316038960800151035b905060008960600151856001600160701b0316038a60a00151116128fc576000612913565b8960600151856001600160701b0316038a60a00151035b905060008211806129245750600081115b61295f5760405162461bcd60e51b8152600401808060200182810382526027815260200180613c306027913960400191505060405180910390fd5b620186a06129778361ffff871663ffffffff6133b116565b8161297e57fe5b0460c08b0152620186a061299c8261ffff861663ffffffff6133b116565b816129a357fe5b0460e08b01526000806001600160a01b0389166129c1576000612a3b565b60055460408051631c60f51f60e21b81526001600160a01b038c8116600483015291519190921691637183d47c916024808301926020929190829003018186803b158015612a0e57600080fd5b505afa158015612a22573d6000803e3d6000fd5b505050506040513d6020811015612a3857600080fd5b50515b90508015612b00578315612aa6576402540be400612a7361ffff8816612a67878563ffffffff6133b116565b9063ffffffff6133b116565b81612a7a57fe5b049150612a94828d60c001516132b590919063ffffffff16565b60c08d01528b51612aa6908a846135a6565b8215612b00576402540be400612aca61ffff8716612a67868563ffffffff6133b116565b81612ad157fe5b049150612aeb828d60e001516132b590919063ffffffff16565b60e08d015260208c0151612b00908a846135a6565b600c5460ff1615612c685760055460408051634cadad5760e11b8152815160009384936001600160a01b039091169263995b5aae9260048083019392829003018186803b158015612b5057600080fd5b505afa158015612b64573d6000803e3d6000fd5b505050506040513d6040811015612b7a57600080fd5b50805160209091015190925090506001600160a01b03811615612c6557612bae82612a67620186a08663ffffffff6132b516565b91508515612c095766038d7ea4c68000612bd661ffff8a16612a67898663ffffffff6133b116565b81612bdd57fe5b049350612bf7848f60c001516132b590919063ffffffff16565b60c08f01528d51612c099082866135a6565b8415612c655766038d7ea4c68000612c2f61ffff8916612a67888663ffffffff6133b116565b81612c3657fe5b049350612c50848f60e001516132b590919063ffffffff16565b60e08f015260208e0151612c659082866135a6565b50505b8315612cea578b51604080516370a0823160e01b815230600482015290516001600160a01b03909216916370a0823191602480820192602092909190829003018186803b158015612cb857600080fd5b505afa158015612ccc573d6000803e3d6000fd5b505050506040513d6020811015612ce257600080fd5b505160808d01525b8215612d6a576020808d0151604080516370a0823160e01b815230600482015290516001600160a01b03909216926370a0823192602480840193829003018186803b158015612d3857600080fd5b505afa158015612d4c573d6000803e3d6000fd5b505050506040513d6020811015612d6257600080fd5b505160a08d01525b50506000612d898b60c001518c608001516132b590919063ffffffff16565b90506000612da88c60e001518d60a001516132b590919063ffffffff16565b9050612dc6886001600160701b0316886001600160701b031661319f565b612dd0838361319f565b1015612e15576040805162461bcd60e51b815260206004820152600f60248201526e48797065727377617050616972204b60881b604482015290519081900360640190fd5b5050612e298a608001518b60a001516130b1565b6040808b01516060808d0151835186815260208101869052808501939093529082015290516001600160a01b038b169133917fd78ad95fa46c994b6551d0da85fc275fe613ce37657fb8d5e3d130840159d8229181900360800190a350506001600d555050505050505050565b6001600160a01b03808416600081815260026020908152604080832094871680845294825291829020859055815185815291517f8c5be1e5ebec7d5bd14f71427d1e84f3dd0314c0f7b2291e5b200ac8c7c3b9259281900390910190a3505050565b600c5460009060ff1615612f0e5750600061092d565b60055460408051634cadad5760e11b8152815160009384936001600160a01b039091169263995b5aae9260048083019392829003018186803b158015612f5357600080fd5b505afa158015612f67573d6000803e3d6000fd5b505050506040513d6040811015612f7d57600080fd5b508051602090910151600b546001600160a01b03821615801596509294509092509061309c578015613097576000612fca6116b7886001600160701b0316886001600160701b031661319f565b90506000612fd78361340a565b905080821115613094576000613010606487612ffc620186a08363ffffffff6133b116565b8161300357fe5b049063ffffffff6132b516565b9050600061303b6064612a6761302c878763ffffffff6132b516565b6000549063ffffffff6133b116565b9050600061306f61305385606463ffffffff6133b116565b613063878663ffffffff6133b116565b9063ffffffff61390716565b9050600081838161307c57fe5b049050801561308f5761308f888261345c565b505050505b50505b6130a8565b80156130a8576000600b555b50505092915050565b6001600160701b0382118015906130cf57506001600160701b038111155b613119576040805162461bcd60e51b815260206004820152601660248201527548797065727377617050616972204f564552464c4f5760501b604482015290519081900360640190fd5b600880546dffffffffffffffffffffffffffff19166001600160701b038481169182176dffffffffffffffffffffffffffff60701b1916600160701b9185169182021790925560408051918252602082019290925281517f1c411e9a96e071241c2f21f7726b17ae89e3cab4c78be50e062b03a9fffbbad1929181900390910190a15050565b600c5460009060ff16156132a5576009546000906131cb85670de0b6b3a764000063ffffffff6133b116565b816131d257fe5b0490506000600a546131f5670de0b6b3a7640000866133b190919063ffffffff16565b816131fc57fe5b0490506000670de0b6b3a764000061321a848463ffffffff6133b116565b8161322157fe5b0490506000613277670de0b6b3a7640000613242858063ffffffff6133b116565b8161324957fe5b04670de0b6b3a7640000613263878063ffffffff6133b116565b8161326a57fe5b049063ffffffff61390716565b9050670de0b6b3a7640000613292838363ffffffff6133b116565b8161329957fe5b0494505050505061092d565b610c3c838363ffffffff6133b116565b6000610c3c83836040518060400160405280601e81526020017f536166654d6174683a207375627472616374696f6e206f766572666c6f770000815250613961565b6001600160a01b038316600090815260016020526040902054613320908263ffffffff6132b516565b6001600160a01b038085166000908152600160205260408082209390935590841681522054613355908263ffffffff61390716565b6001600160a01b0380841660008181526001602090815260409182902094909455805185815290519193928716927fddf252ad1be2c89b69c2b068fc378daa952ba7f163c4a11628f55a4df523b3ef92918290030190a3505050565b6000826133c05750600061092d565b828202828482816133cd57fe5b0414610c3c5760405162461bcd60e51b8152600401808060200182810382526021815260200180613cad6021913960400191505060405180910390fd5b6000600382111561344d575080600160028204015b818110156134475780915060028182858161343657fe5b04018161343f57fe5b04905061341f565b50613457565b8115613457575060015b919050565b60005461346f908263ffffffff61390716565b60009081556001600160a01b03831681526001602052604090205461349a908263ffffffff61390716565b6001600160a01b03831660008181526001602090815260408083209490945583518581529351929391927fddf252ad1be2c89b69c2b068fc378daa952ba7f163c4a11628f55a4df523b3ef9281900390910190a35050565b60008183106135015781610c3c565b5090919050565b6001600160a01b038216600090815260016020526040902054613531908263ffffffff6132b516565b6001600160a01b0383166000908152600160205260408120919091555461355e908263ffffffff6132b516565b60009081556040805183815290516001600160a01b038516917fddf252ad1be2c89b69c2b068fc378daa952ba7f163c4a11628f55a4df523b3ef919081900360200190a35050565b604080518082018252601981527f7472616e7366657228616464726573732c75696e74323536290000000000000060209182015281516001600160a01b0385811660248301526044808301869052845180840390910181526064909201845291810180516001600160e01b031663a9059cbb60e01b1781529251815160009460609489169392918291908083835b602083106136535780518252601f199092019160209182019101613634565b6001836020036101000a0380198251168184511680821785525050505050509050019150506000604051808303816000865af19150503d80600081146136b5576040519150601f19603f3d011682016040523d82523d6000602084013e6136ba565b606091505b50915091508180156136e85750805115806136e857508080602001905160208110156136e557600080fd5b50515b610b40576040805162461bcd60e51b815260206004820152601d60248201527f48797065727377617050616972205452414e534645525f4641494c4544000000604482015290519081900360640190fd5b600c5460009060ff161561387c57613774620186a061375e888563ffffffff6133b116565b8161376557fe5b8891900463ffffffff6132b516565b95506000613782858561319f565b905060095485670de0b6b3a7640000028161379957fe5b049450600a5484670de0b6b3a764000002816137b157fe5b600654919004945060009081906001600160a01b038981169116146137d75785876137da565b86865b60065491935091506001600160a01b0389811691161461380f57600a5489670de0b6b3a7640000028161380957fe5b04613826565b60095489670de0b6b3a7640000028161382457fe5b045b98506000613837838b0185846139f8565b6006549083039150670de0b6b3a7640000906001600160a01b038b811691161461386357600954613867565b600a545b82028161387057fe5b049450505050506138fe565b60065460009081906001600160a01b0388811691161461389d5784866138a0565b85855b90925090506138c86138bb620186a08663ffffffff6132b516565b899063ffffffff6133b116565b97506138e18861306384620186a063ffffffff6133b116565b6138f1898363ffffffff6133b116565b816138f857fe5b04925050505b95945050505050565b600082820183811015610c3c576040805162461bcd60e51b815260206004820152601b60248201527f536166654d6174683a206164646974696f6e206f766572666c6f770000000000604482015290519081900360640190fd5b600081848411156139f05760405162461bcd60e51b81526004018080602001828103825283818151815260200191508051906020019080838360005b838110156139b557818101518382015260200161399d565b50505050905090810190601f1680156139e25780820380516001836020036101000a031916815260200191505b509250505060405180910390fd5b505050900390565b6000805b60ff811015613ab057826000613a128783613ab9565b905085811015613a48576000613a288887613b09565b828803670de0b6b3a76400000281613a3c57fe5b04959095019450613a6f565b6000613a548887613b09565b878303670de0b6b3a76400000281613a6857fe5b0490950394505b81851115613a9157600182860311613a8c57849350505050610c3c565b613aa6565b600185830311613aa657849350505050610c3c565b50506001016139fc565b50909392505050565b6000670de0b6b3a764000082818581818002040281613ad457fe5b040281613add57fe5b04670de0b6b3a7640000808481818002040281613af657fe5b04850281613b0057fe5b04019392505050565b6000670de0b6b3a76400008381818002040281613b2257fe5b04670de0b6b3a76400008084800204856003020281613b0057fe5b60405180610100016040528060006001600160a01b0316815260200160006001600160a01b03168152602001600081526020016000815260200160008152602001600081526020016000815260200160008152509056fe48797065727377617050616972206f6e6c7920666163746f72792773206f776e657248797065727377617050616972206c697175696469747920726174696f206e6f7420696e697469616c697a65644879706572737761705061697220494e53554646494349454e545f4c49515549444954594879706572737761705061697220494e53554646494349454e545f4f55545055545f414d4f554e544879706572737761705061697220494e53554646494349454e545f494e5055545f414d4f554e5448797065727377617050616972206f6e6c7920666163746f7279277320736574537461626c654f776e65724879706572737761705061697220494e53554646494349454e545f4c49515549444954595f4d494e544544536166654d6174683a206d756c7469706c69636174696f6e206f766572666c6f77487970657273776170506169722066656550657263656e74206d7573746e27742065786365656420746865206d696e696d756d487970657273776170506169722066656550657263656e74206d7573746e27742065786365656420746865206d6178696d756d48797065727377617050616972204c4f434b45440000000000000000000000004879706572737761705061697220494e53554646494349454e545f4c49515549444954595f4255524e454448797065727377617050616972206f6e6c7920666163746f7279277320666565416d6f756e744f776e6572a265627a7a72315820ab61b1f5b66116e3949576cd8f4cee306a291ebe8f605bc0202e34eef456052464736f6c63430005100032454950373132446f6d61696e28737472696e67206e616d652c737472696e672076657273696f6e2c75696e7432353620636861696e49642c6164647265737320766572696679696e67436f6e747261637429",
  "linkReferences": {},
  "deployedLinkReferences": {}
}