{
  "_format": "hh-sol-artifact-1",
  "contractName": "Multicall",
  "sourceName": "contracts/Multicall.sol",
  "abi": [
    {
      "inputs": [
        {
          "components": [
            {
              "internalType": "address",
              "name": "target",
              "type": "address"
            },
            {
              "internalType": "bytes",
              "name": "callData",
              "type": "bytes"
            }
          ],
          "internalType": "struct Multicall.Call[]",
          "name": "calls",
          "type": "tuple[]"
        }
      ],
      "name": "aggregate",
      "outputs": [
        {
          "internalType": "uint256",
          "name": "blockNumber",
          "type": "uint256"
        },
        {
          "internalType": "bytes[]",
          "name": "returnData",
          "type": "bytes[]"
        }
      ],
      "stateMutability": "nonpayable",
      "type": "function"
    },
    {
      "inputs": [
        {
          "components": [
            {
              "internalType": "address",
              "name": "target",
              "type": "address"
            },
            {
              "internalType": "bytes",
              "name": "callData",
              "type": "bytes"
            }
          ],
          "internalType": "struct Multicall.Call[]",
          "name": "calls",
          "type": "tuple[]"
        }
      ],
      "name": "blockAndAggregate",
      "outputs": [
        {
          "internalType": "uint256",
          "name": "blockNumber",
          "type": "uint256"
        },
        {
          "internalType": "bytes32",
          "name": "blockHash",
          "type": "bytes32"
        },
        {
          "components": [
            {
              "internalType": "bool",
              "name": "success",
              "type": "bool"
            },
            {
              "internalType": "bytes",
              "name": "returnData",
              "type": "bytes"
            }
          ],
          "internalType": "struct Multicall.Result[]",
          "name": "returnData",
          "type": "tuple[]"
        }
      ],
      "stateMutability": "nonpayable",
      "type": "function"
    },
    {
      "inputs": [
        {
          "internalType": "uint256",
          "name": "blockNumber",
          "type": "uint256"
        }
      ],
      "name": "getBlockHash",
      "outputs": [
        {
          "internalType": "bytes32",
          "name": "blockHash",
          "type": "bytes32"
        }
      ],
      "stateMutability": "view",
      "type": "function"
    },
    {
      "inputs": [],
      "name": "getBlockNumber",
      "outputs": [
        {
          "internalType": "uint256",
          "name": "blockNumber",
          "type": "uint256"
        }
      ],
      "stateMutability": "view",
      "type": "function"
    },
    {
      "inputs": [],
      "name": "getCurrentBlockCoinbase",
      "outputs": [
        {
          "internalType": "address",
          "name": "coinbase",
          "type": "address"
        }
      ],
      "stateMutability": "view",
      "type": "function"
    },
    {
      "inputs": [],
      "name": "getCurrentBlockDifficulty",
      "outputs": [
        {
          "internalType": "uint256",
          "name": "difficulty",
          "type": "uint256"
        }
      ],
      "stateMutability": "view",
      "type": "function"
    },
    {
      "inputs": [],
      "name": "getCurrentBlockGasLimit",
      "outputs": [
        {
          "internalType": "uint256",
          "name": "gaslimit",
          "type": "uint256"
        }
      ],
      "stateMutability": "view",
      "type": "function"
    },
    {
      "inputs": [],
      "name": "getCurrentBlockTimestamp",
      "outputs": [
        {
          "internalType": "uint256",
          "name": "timestamp",
          "type": "uint256"
        }
      ],
      "stateMutability": "view",
      "type": "function"
    },
    {
      "inputs": [
        {
          "internalType": "address",
          "name": "addr",
          "type": "address"
        }
      ],
      "name": "getEthBalance",
      "outputs": [
        {
          "internalType": "uint256",
          "name": "balance",
          "type": "uint256"
        }
      ],
      "stateMutability": "view",
      "type": "function"
    },
    {
      "inputs": [],
      "name": "getLastBlockHash",
      "outputs": [
        {
          "internalType": "bytes32",
          "name": "blockHash",
          "type": "bytes32"
        }
      ],
      "stateMutability": "view",
      "type": "function"
    },
    {
      "inputs": [
        {
          "internalType": "bool",
          "name": "requireSuccess",
          "type": "bool"
        },
        {
          "components": [
            {
              "internalType": "address",
              "name": "target",
              "type": "address"
            },
            {
              "internalType": "bytes",
              "name": "callData",
              "type": "bytes"
            }
          ],
          "internalType": "struct Multicall.Call[]",
          "name": "calls",
          "type": "tuple[]"
        }
      ],
      "name": "tryAggregate",
      "outputs": [
        {
          "components": [
            {
              "internalType": "bool",
              "name": "success",
              "type": "bool"
            },
            {
              "internalType": "bytes",
              "name": "returnData",
              "type": "bytes"
            }
          ],
          "internalType": "struct Multicall.Result[]",
          "name": "returnData",
          "type": "tuple[]"
        }
      ],
      "stateMutability": "nonpayable",
      "type": "function"
    },
    {
      "inputs": [
        {
          "internalType": "bool",
          "name": "requireSuccess",
          "type": "bool"
        },
        {
          "components": [
            {
              "internalType": "address",
              "name": "target",
              "type": "address"
            },
            {
              "internalType": "bytes",
              "name": "callData",
              "type": "bytes"
            }
          ],
          "internalType": "struct Multicall.Call[]",
          "name": "calls",
          "type": "tuple[]"
        }
      ],
      "name": "tryBlockAndAggregate",
      "outputs": [
        {
          "internalType": "uint256",
          "name": "blockNumber",
          "type": "uint256"
        },
        {
          "internalType": "bytes32",
          "name": "blockHash",
          "type": "bytes32"
        },
        {
          "components": [
            {
              "internalType": "bool",
              "name": "success",
              "type": "bool"
            },
            {
              "internalType": "bytes",
              "name": "returnData",
              "type": "bytes"
            }
          ],
          "internalType": "struct Multicall.Result[]",
          "name": "returnData",
          "type": "tuple[]"
        }
      ],
      "stateMutability": "nonpayable",
      "type": "function"
    }
  ],
  "bytecode": "0x608060405234801561001057600080fd5b50610996806100206000396000f3fe608060405234801561001057600080fd5b50600436106100d45760003560e01c806372425d9d11610081578063bce38bd71161005b578063bce38bd714610174578063c3077fa914610194578063ee82ac5e146101a757600080fd5b806372425d9d1461015a57806386d516e814610160578063a8b0574e1461016657600080fd5b8063399542e9116100b2578063399542e91461011757806342cbb15c146101395780634d2301cc1461013f57600080fd5b80630f28c97d146100d9578063252dba42146100ee57806327e86d6e1461010f575b600080fd5b425b6040519081526020015b60405180910390f35b6101016100fc3660046106bc565b6101b9565b6040516100e5929190610749565b6100db6102ef565b61012a6101253660046107b3565b610302565b6040516100e593929190610870565b436100db565b6100db61014d366004610898565b6001600160a01b03163190565b446100db565b456100db565b6040514181526020016100e5565b6101876101823660046107b3565b61031a565b6040516100e591906108ba565b61012a6101a23660046106bc565b6104d8565b6100db6101b53660046108cd565b4090565b8051439060609067ffffffffffffffff8111156101d8576101d86104f5565b60405190808252806020026020018201604052801561020b57816020015b60608152602001906001900390816101f65790505b50905060005b83518110156102e95760008085838151811061022f5761022f6108e6565b6020026020010151600001516001600160a01b0316868481518110610256576102566108e6565b60200260200101516020015160405161026f91906108fc565b6000604051808303816000865af19150503d80600081146102ac576040519150601f19603f3d011682016040523d82523d6000602084013e6102b1565b606091505b5091509150808484815181106102c9576102c96108e6565b6020026020010181905250505080806102e19061092e565b915050610211565b50915091565b60006102fc600143610947565b40905090565b4380406060610311858561031a565b90509250925092565b6060815167ffffffffffffffff811115610336576103366104f5565b60405190808252806020026020018201604052801561037c57816020015b6040805180820190915260008152606060208201528152602001906001900390816103545790505b50905060005b82518110156104d1576000808483815181106103a0576103a06108e6565b6020026020010151600001516001600160a01b03168584815181106103c7576103c76108e6565b6020026020010151602001516040516103e091906108fc565b6000604051808303816000865af19150503d806000811461041d576040519150601f19603f3d011682016040523d82523d6000602084013e610422565b606091505b5091509150851561048857816104885760405162461bcd60e51b815260206004820152602160248201527f4d756c746963616c6c32206167677265676174653a2063616c6c206661696c656044820152601960fa1b606482015260840160405180910390fd5b60405180604001604052808315158152602001828152508484815181106104b1576104b16108e6565b6020026020010181905250505080806104c99061092e565b915050610382565b5092915050565b60008060606104e8600185610302565b9196909550909350915050565b634e487b7160e01b600052604160045260246000fd5b6040805190810167ffffffffffffffff8111828210171561052e5761052e6104f5565b60405290565b604051601f8201601f1916810167ffffffffffffffff8111828210171561055d5761055d6104f5565b604052919050565b80356001600160a01b038116811461057c57600080fd5b919050565b6000601f838184011261059357600080fd5b8235602067ffffffffffffffff808311156105b0576105b06104f5565b8260051b6105bf838201610534565b93845286810183019383810190898611156105d957600080fd5b84890192505b858310156106af578235848111156105f75760008081fd5b89016040601f19828d0381018213156106105760008081fd5b61061861050b565b610623898501610565565b815282840135888111156106375760008081fd5b8085019450508d603f85011261064d5760008081fd5b8884013588811115610661576106616104f5565b6106708a848e84011601610534565b92508083528e848287010111156106875760008081fd5b808486018b85013760009083018a0152808901919091528452505091840191908401906105df565b9998505050505050505050565b6000602082840312156106ce57600080fd5b813567ffffffffffffffff8111156106e557600080fd5b6106f184828501610581565b949350505050565b60005b838110156107145781810151838201526020016106fc565b50506000910152565b600081518084526107358160208601602086016106f9565b601f01601f19169290920160200192915050565b600060408201848352602060408185015281855180845260608601915060608160051b870101935082870160005b828110156107a557605f1988870301845261079386835161071d565b95509284019290840190600101610777565b509398975050505050505050565b600080604083850312156107c657600080fd5b823580151581146107d657600080fd5b9150602083013567ffffffffffffffff8111156107f257600080fd5b6107fe85828601610581565b9150509250929050565b6000815180845260208085019450848260051b860182860160005b858110156108635783830389528151805115158452850151604086850181905261084f8186018361071d565b9a87019a9450505090840190600101610823565b5090979650505050505050565b83815282602082015260606040820152600061088f6060830184610808565b95945050505050565b6000602082840312156108aa57600080fd5b6108b382610565565b9392505050565b6020815260006108b36020830184610808565b6000602082840312156108df57600080fd5b5035919050565b634e487b7160e01b600052603260045260246000fd5b6000825161090e8184602087016106f9565b9190910192915050565b634e487b7160e01b600052601160045260246000fd5b60006001820161094057610940610918565b5060010190565b8181038181111561095a5761095a610918565b9291505056fea26469706673582212202d74c319a917250807f9d9481b992de5d27ddbeae76c23d1f593d03d7dcbfa3464736f6c63430008140033",
  "linkReferences": {},
  "deployedLinkReferences": {}
}